:020000040000fa
:10000000f0ff0320fd030000fb050000fb050000de
:10001000fb050000fb050000fb05000000000000e0
:10002000000000000000000000000000fb050000d0
:10003000fb05000000000000fb050000fb050000c0
:10004000fb050000fb050000fb050000fb050000b0
:10005000fb050000fb050000fb050000fb050000a0
:10006000fb050000fb050000fb050000fb05000090
:10007000fb050000fb050000fb050000fb05000080
:10008000fb050000fb050000fb050000fb05000070
:10009000fb050000fb050000fb050000fb05000060
:1000a000fb050000fb050000fb050000fd0500004e
:1000b000fb050000fb050000fb050000fb05000040
:1000c000fb050000fb050000fb050000fb05000030
:1000d000fb050000fb050000fb050000fb05000020
:1000e000fb050000fb050000000000000000000010
:1000f00000000000fb050000fb050000fb05000000
:10010000fb050000fb050000fb050000fb050000ef
:10011000fb050000fb050000fb050000fb050000df
:10012000fb050000fb050000fb050000fb050000cf
:10013000fb050000fb050000fb050000fb050000bf
:10014000fb050000fb050000fb050000fb050000af
:10015000fb050000fb050000fb050000fb0500009f
:10016000fb050000fb050000fb050000fb0500008f
:10017000fb050000fb050000fb050000fb0500007f
:10018000fb050000fb050000fb050000fb0500006f
:10019000fb050000fb050000fb050000fb0500005f
:1001a000fb050000fb050000fb050000fb0500004f
:1001b000fb050000fb050000fb050000fb0500003f
:1001c000fb050000fb050000fb050000fb0500002f
:1001d000fb050000fb050000fb050000fb0500001f
:1001e000fb050000fb050000fb050000fb0500000f
:1001f000fb050000fb050000fb050000fb050000ff
:10020000fb050000fb050000fb050000fb050000ee
:10021000fb050000fb050000fb050000fb050000de
:10022000fb050000fb050000fb050000fb050000ce
:10023000fb050000fb050000fb050000fb050000be
:10024000fb050000fb050000fb050000fb050000ae
:10025000fb050000fb050000fb050000fb0500009e
:04026000fb0500009a
:020000040000fa
:10026400f8b500bff8bc08bc9e4670475d050000a9
:10027400f8b500bff8bc08bc9e46704739050000bd
:020000040000fa
:100284002d4b00221a7403f500632c4a9a621a4615
:10029400536813f0100ffbd1294b4222c3f884207a
:1002a4001a4600bfd2f8843013f0400ffad0254b21
:1002b40000229a6377225a631a46d36b13f0040f11
:1002c400fbd1204b022283f830201a46d36b13f063
:1002d400020ffbd11b4a136c03f00303032bfad167
:1002e400194b01225a711a46d37813f0010ffbd02f
:1002f400134b164a1a621a46536813f0040ffbd1c3
:100304000f4b134a5a621a46536813f0080ffbd175
:100314000b4b4122c3f890201a4600bfd2f890300c
:1003240013f0400ffad0084b6ff07f421a6140f28d
:10033400ff725a61704700bf00140040060130008c
:10034400001c0040001000400008004007010100ac
:04035400070102009b
:020000040000fa
:10035800244b40f204521a80234a137843f00103d5
:100368001370536813f0020ffbd11f4bda6942f484
:100378008052da611a6a42f080521a621a6942f4ab
:1003880000421a611a7842f002021a701a4653683b
:1003980013f0020ffbd1154bda6822f4e062120465
:1003a800120c42f0bf6242f40032da60bff35f8f92
:1003b80062b60f4ae02182f81b134ff0006111600a
:1003c8005a6a42f480225a625a6942f010025a610b
:1003d8005a6a42f400325a625a6a42f480325a62c5
:1003e800704700bf004000410028004000ed00e0d9
:0403f80000e100e040
:020000040000fa
:1003fc001a4b03b198471a4b03b19847eff310838c
:10040c00b3fa83f35b09019372b6bff35f8f154b9d
:10041c0000221a700199144a136843f47003136094
:10042c00bff34f8fbff36f8f29b10e4b01221a70a0
:10043c00bff35f8f62b600f099f80c4b23f07f038b
:10044c000b4a93600b4b98470b4b03b198470b4be4
:10045c0003b1984700f0edf8fee700bf0000000084
:10046c00000000007400002088ed00e00000000097
:10047c0000ed00e08d040000000000000000000012
:020000040000fa
:10048c000e4a38b5002313600d4a0e4c13600e4a09
:10049c000e4d13600e4a13600e4a13600e4a5362df
:1004ac0013610123936000f0cef800f0ccf8ac425d
:1004bc0000d338bd54f8043b9847f8e7700000208f
:1004cc000c000020700200000800002074020000e4
:0c04dc00000000200400002010000020a0
:020000040000fa
:1004e800500000201c0000000000000074000020e4
:1004f80001000000000000006c0000200400000063
:100508000000000000000020500000000000000073
:10051800700000200400000000000000000000003f
:1005280000000000666666666666666666666666fb
:020000040000fa
:1005380010b5054c227832b9044b13b10448aff317
:1005480000800123237010bd50000020000000002f
:100558000000000008b5034b1bb103490348aff383
:10056800008008bd000000005400002000000000ca
:020000040000fa
:1005780070b50a480a4d4ff6ff76016811b943680d
:1005880003b970bd83684268334000f10c0455f824
:1005980023302046984704eb8000eee7e80400008b
:0405a8001806000031
:020000040000fa
:1005ac00094b0a4ac3f89020072283f8df20002267
:1005bc0083f8bf204ff48021c3f8001183f8522137
:1005cc0083f83921704700bf00800041000008808b
:020000040000fa
:1005dc0010b50023934206d113f0030018bf01207d
:0e05ec0000eb930010bdc45ccc540133f2e769
:020000040000fa
:0205fa00fee71a
:020000040000fa
:1005fc00044b4ff400425a61034b4ff48022c3f872
:0c060c001c2170470028004000800041c5
:020000040000fa
:100618002d060000dd0500004f0600004f06000013
:040628004f06000079
:020000040000fa
:10062c000a440023914201d10020704701f8013b9c
:02063c00f8e7dd
:020000040000fa
:10063e0008b5fff7b4fffff71efefff786fefee7d5
:020000040000fa
:04064e0000207047d1
:020000040000fa
:020652007047ef
:020000040000fa
:0200000400807a
:044000003912003c35
:020000040000fa
:0200000400807a
:044004008000a82a66
:020000040000fa
:0200000400807a
:04400800ffffffffb8
:00000001FF
