:020000040000fa
:10000000f0ff0320290300005705000057050000fa
:1000100057050000570500005705000000000000cc
:100020000000000000000000000000005705000074
:1000300057050000000000005705000057050000ac
:100040005705000057050000570500005705000040
:100050005705000057050000570500005705000030
:100060005705000057050000570500005705000020
:100070005705000057050000570500005705000010
:100080005705000057050000570500005705000000
:1000900057050000570500005705000057050000f0
:1000a00057050000570500005705000057050000e0
:1000b00057050000570500005705000057050000d0
:1000c00057050000570500005705000057050000c0
:1000d00057050000570500005705000057050000b0
:1000e0005705000057050000000000000000000058
:1000f00000000000570500005705000057050000ec
:10010000570500005705000057050000570500007f
:10011000570500005705000057050000570500006f
:10012000570500005705000057050000570500005f
:10013000570500005705000057050000570500004f
:10014000570500005705000057050000570500003f
:10015000570500005705000057050000570500002f
:10016000570500005705000057050000570500001f
:10017000570500005705000057050000570500000f
:1001800057050000570500005705000057050000ff
:1001900057050000570500005705000057050000ef
:1001a00057050000570500005705000057050000df
:1001b00057050000570500005705000057050000cf
:1001c00057050000570500005705000057050000bf
:1001d00057050000570500005705000057050000af
:1001e000570500005705000057050000570500009f
:1001f000570500005705000057050000570500008f
:10020000570500005705000057050000570500007e
:10021000570500005705000057050000570500006e
:10022000570500005705000057050000570500005e
:10023000570500005705000057050000570500004e
:10024000570500005705000057050000570500003e
:10025000570500005705000057050000570500002e
:04026000570500003e
:020000040000fa
:10026400f8b500bff8bc08bc9e467047e90400001e
:10027400f8b500bff8bc08bc9e467047c504000032
:020000040000fa
:10028400244b40f204521a80234a137843f00103aa
:100294001370536813f0020ffbd11f4bda6942f459
:1002a4008052da611a6a42f080521a621a6942f480
:1002b40000421a611a7842f002021a701a46536810
:1002c40013f0020ffbd1154bda6822f4e06212043a
:1002d400120c42f0bf6242f40032da60bff35f8f67
:1002e40062b60f4ae02182f81b134ff000611160df
:1002f4005a6a42f480225a625a6942f010025a61e0
:100304005a6a42f400325a625a6a42f480325a6299
:10031400704700bf004000410028004000ed00e0ad
:0403240000e100e014
:020000040000fa
:100328001a4b03b198471a4b03b19847eff3108360
:10033800b3fa83f35b09019372b6bff35f8f154b72
:1003480000221a700199144a136843f47003136069
:10035800bff34f8fbff36f8f29b10e4b01221a7075
:10036800bff35f8f62b600f0c9f80c4b23f07f0330
:100378000b4a93600b4b98470b4b03b198470b4bb9
:1003880003b1984700f0f7f8fee700bf000000004f
:10039800000000007400002088ed00e0000000006c
:1003a80000ed00e01904000000000000000000005b
:020000040000fa
:1003b800134b4122c3f890201a4600bfd2f8903060
:1003c80013f0400ffad00f4b9a6942f010029a616d
:1003d8005a6942f480625a610b4b0c4ac3f8902068
:1003e800072283f8df20002283f8bf204ff4802102
:1003f800c3f8001183f8522183f83921704700bff0
:10040800001c0040000800400080004100000880f7
:020000040000fa
:100418000e4a38b5002313600d4a0e4c13600e4a7d
:100428000e4d13600e4a13600e4a13600e4a536253
:1004380013610123936000f0a6f800f0a4f8ac4221
:1004480000d338bd54f8043b9847f8e77000002003
:100458000c00002070020000080000207402000058
:0c04680000000020040000201000002014
:020000040000fa
:10047400500000201c000000000000007400002058
:1004840001000000000000006c00002004000000d7
:1004940000000000000000205000000000000000e8
:1004a40070000020040000000000000000000000b4
:1004b4000000000066666666666666666666666670
:020000040000fa
:1004c40010b5054c227832b9044b13b10448aff38c
:1004d40000800123237010bd5000002000000000a4
:1004e4000000000008b5034b1bb103490348aff3f8
:1004f400008008bd0000000054000020000000003f
:020000040000fa
:1005040070b50a480a4d4ff6ff76016811b9436881
:1005140003b970bd83684268334000f10c0455f898
:1005240023302046984704eb8000eee77404000073
:040534005805000066
:020000040000fa
:1005380010b50023934206d113f0030018bf012021
:0e05480000eb930010bdc45ccc540133f2e70d
:020000040000fa
:02055600fee7be
:020000040000fa
:100558006d050000390500008b0500008b050000c3
:040568008b050000ff
:020000040000fa
:10056c000a440023914201d10020704701f8013b5d
:02057c00f8e79e
:020000040000fa
:0c057e0008b5fff71afffff77efefee74e
:020000040000fa
:04058a000020704796
:020000040000fa
:02058e007047b4
:00000001FF
