:020000040000fa
:10000000f0ff0320f90500007f0b00007f0b0000cc
:100010007f0b00007f0b00007f0b00000000000042
:100020000000000000000000000000007f0b000046
:100030007f0b0000000000007f0b00007f0b000022
:100040007f0b00007f0b00007f0b00007f0b000088
:100050007f0b00007f0b00007f0b00007f0b000078
:100060007f0b00007f0b00007f0b00007f0b000068
:100070007f0b00007f0b00007f0b00007f0b000058
:100080007f0b00007f0b00007f0b00007f0b000048
:100090007f0b00007f0b00007f0b00007f0b000038
:1000a0007f0b00007f0b00007f0b00007f0b000028
:1000b0007f0b00007f0b00007f0b00007f0b000018
:1000c0007f0b00007f0b00007f0b00007f0b000008
:1000d0007f0b00007f0b00007f0b00007f0b0000f8
:1000e0007f0b00007f0b00000000000000000000fc
:1000f000000000007f0b00007f0b00007f0b000062
:100100007f0b00007f0b00007f0b00007f0b0000c7
:100110007f0b00007f0b00007f0b00007f0b0000b7
:100120007f0b00007f0b0000850200007f0b0000aa
:100130007f0b00007f0b00007f0b00007f0b000097
:100140007f0b00007f0b00007f0b00007f0b000087
:100150007f0b00007f0b00007f0b00007f0b000077
:100160007f0b00007f0b00007f0b00007f0b000067
:100170007f0b00007f0b00007f0b00007f0b000057
:100180007f0b00007f0b00007f0b00007f0b000047
:100190007f0b00007f0b00007f0b00007f0b000037
:1001a0007f0b00007f0b00007f0b00007f0b000027
:1001b0007f0b00007f0b00007f0b00007f0b000017
:1001c0007f0b00007f0b00007f0b00007f0b000007
:1001d0007f0b00007f0b00007f0b00007f0b0000f7
:1001e0007f0b00007f0b00007f0b00007f0b0000e7
:1001f0007f0b00007f0b00007f0b00007f0b0000d7
:100200007f0b00007f0b00007f0b00007f0b0000c6
:100210007f0b00007f0b00007f0b00007f0b0000b6
:100220007f0b00007f0b00007f0b00007f0b0000a6
:100230007f0b00007f0b00007f0b00007f0b000096
:100240007f0b00007f0b00007f0b00007f0b000086
:100250007f0b00007f0b00007f0b00007f0b000076
:040260007f0b000010
:020000040000fa
:10026400f8b500bff8bc08bc9e4670478d09000075
:10027400f8b500bff8bc08bc9e4670476909000089
:020000040000fa
:10028400764b9b7d002b00f0e78010b5744b9c6a85
:10029400724b5b8b13f0020f1bd0714bff2283f860
:1002a4002020022283f821206e4b4ff48042c3f8b1
:1002b40098206b4b93f820305bb2b3f1ff3f00f012
:1002c4009980674b93f820305bb2062b00f0ab802b
:1002d40010bd624b5b8b13f0010f0cd0604bff22ff
:1002e40083f82020022283f821205e4b4ff4004241
:1002f400c3f89820dde7594b5b8b13f0040f0bd048
:10030400574bff2283f82020012283f82120554bec
:100314004022c3f89820cce7514b93f820305bb2cd
:10032400032b48d0042b12d0022bc2d14c4b1b6997
:1003340033b14b4b98880021c0b200f0ebfab8e718
:10034400474b98880121c0b200f0e4fab1e7444a6f
:10035400936912699a420bd0414a9268d15c3f4a30
:100364009162591cd369002bfcd13d4b9961a0e7e4
:100374003b4b5b6973b13a4b9b885b0043f00103d1
:10038400364a5362d369002bfcd1354b032283f8e0
:1003940020208ee7314a536843f440335360d369d5
:1003a400002bfcd12f4b0222c3f898202c4b0622a1
:1003b40083f820207de72a4bd9695b69013b8b4296
:1003c4000bd0264ad369002bfcd1244b986a244bca
:1003d400da6850540131d9616be7204a536843f419
:1003e400e0235360d369002bfcd11d4b062283f814
:1003f4002020e6e71a4b002283f82020174a53688e
:1004040043f440335360d369002bfcd1134b832254
:100414001a76134b5b6a002b3ff45aaf104b5b6a9e
:100424002046984754e70e4b002283f8202083f897
:1004340021200a4b83221a761a46538b03f0300389
:10044400102bfad1064b5b6a002b3ff441af044bef
:100454005b6a204698473be7704700bf0040014174
:0804640050000020008000415f
:020000040000fa
:10046c002de9f04186b002238df8173001238df869
:10047c00163015238df8143019238df80f3000f039
:10048c00a9fa00f0b9f900f075fb00f03ff900f0a3
:10049c0079f9544b4ff48022c3f8082100240a2523
:1004ac001e462746dff8408111e004240fe00624a5
:1004bc000de00df11701404600f06cfb8df8177044
:1004cc0001220df10f01762000f09efa012428463e
:1004dc0000f0e6fa092cfad801a353f824f000bf77
:1004ec00bf04000015050000410500006d0500006b
:1004fc0093050000a9050000c1050000db04000005
:10050c00cf050000df0500009df81730dbb2012b92
:10051c0006d09df81740e4b2023c18bf0124d6e780
:10052c008df8177001220df10f01762000f06cfa96
:10053c000224cce79df81730dbb2012b06d09df8d6
:10054c001730dbb2022b08bf0924c0e78df81770f7
:10055c0001220df11601762000f056fa0324b6e7bd
:10056c009df81730dbb2012b9fd09df81730dbb212
:10057c00022bacd18df8177001220df116017620eb
:10058c0000f042faa3e78df817700122009204ab39
:10059c0005a9762000f002fa052498e79df817309b
:1005ac00dbb2012b83d09df81730dbb2022b08bfd6
:1005bc0009248ce79df81030002b0cbf092408246b
:1005cc0085e74ff48023c6f818310223c6f898301b
:1005dc007de74ff48023c6f814314ff40043c6f87e
:0c05ec00983074e700800041f10a000024
:020000040000fa
:1005f8001a4b03b198471a4b03b19847eff310838e
:10060800b3fa83f35b09019372b6bff35f8f154b9f
:1006180000221a700199144a136843f47003136096
:10062800bff34f8fbff36f8f29b10e4b01221a70a2
:10063800bff35f8f62b600f003fa0c4b23f07f0321
:100648000b4a93600b4b98470b4b03b198470b4be6
:1006580003b19847fff706fffee700bf0000000060
:1006680000000000a800002088ed00e00000000065
:1006780000ed00e069080000000000000000000034
:020000040000fa
:100688007c0000201c00000000000000500000203a
:100698002c00000000000000a8000020010000005d
:1006a80000000000a000002004000000000000007e
:1006b800000000205000000000000000ac000020f6
:1006c80020000000010000000100000003000000fd
:1006d8000000000000000000000000000000000012
:1006e800000000009800002098000020080000008a
:1006f80000000000a400002004000000000000002a
:1007080000000000000000006666666666666666b1
:020000040000fa
:10071800174a936943f480639361164b4022c3f8e8
:10072800e020154b01221a601a46d36913f0070f0f
:10073800fbd1114b114ada60114a1a601a46d36983
:1007480013f0070ffbd10c4b10225a831a46d369ba
:1007580013f0070ffbd10b4b002283f8212083f8fd
:100768002020054a937d43f083039375704700bfab
:1007780000080040001c004000400141537b6cfc15
:080788001600200150000020c2
:020000040000fa
:100790001a4bda6822f4e0621204120c42f0bf62d3
:1007a00042f40032da60bff35f8f62b6144ae02190
:1007b00082f83a134ff08060506082f83b134ff09c
:1007c0000060506082f83c134ff08050506082f817
:1007d0003d134ff0005151605a6a42f480225a6230
:1007e0005a6942f010025a615a6a42f400325a625f
:1007f0005a6a42f480325a62704700bf00ed00e04e
:0408000000e100e033
:020000040000fa
:1008040008b5154b00221a7400f08cf900f058f862
:1008140000f032f900f078f9104b4122c3f81421aa
:100824001a4600bfd2f8143113f0400ffad00b4b24
:100834004122c3f890201a46d2f8903013f0400faa
:10084400fad0074b6ff07f421a6140f2ff725a618f
:1008540008221a6208bd00bf00140040001c0040ba
:040864000008004048
:020000040000fa
:100868000e4a38b5002313600d4a0e4c13600e4a29
:100878000e4d13600e4a13600e4a13600e4a5362ff
:1008880013610123936000f07ff900f097f9ac42ff
:1008980000d338bd54f8043b9847f8e7a40000207b
:1008a8000c00002070020000080000207402000004
:0c08b800000000200400002010000020c0
:020000040000fa
:1008c400124b4222c3f884201a4600bfd2f8843067
:1008d40013f0400ffad00e4b00229a6377225a632a
:1008e4001a46d36b13f0040ffbd1094b022283f891
:1008f40030201a46d36b13f0020ffbd1044a136c59
:1009040003f00303032bfad1704700bf001c00401f
:04091400001000408f
:020000040000fa
:1009180010b4114b00229a61da610c46b1b103227e
:1009280083f820200d4b01221a761a46d36913f05a
:10093800070ffbd144ea4004084b5c621a46d369ae
:1009480013f0070ffbd15df8044b7047024b0422ec
:1009580083f82020e6e700bf500000200040014156
:020000040000fa
:1009680010b5054c227832b9044b13b10448aff3e3
:1009780000800123237010bd7c00002000000000cf
:100988000000000008b5034b1bb103490348aff34f
:10099800008008bd0000000080000020000000006a
:020000040000fa
:1009a80038b50c4c94f8204064b20cb1002038bd26
:1009b800c0b285b2074ca580e360049b6361a16067
:1009c80022610021a17084f82110fff7a1ff012006
:0809d800ede700bf5000002014
:020000040000fa
:1009e0000b4b4ff400029a604ff480029a6093f828
:1009f000562042f0050283f8562093f8572042f023
:100a0000050283f85720222283f83b20704700bf5d
:040a10000080004121
:020000040000fa
:100a14000b4b93f820305bb20bb10020704710b53c
:100a24000c4681b2064b99800021d96059619c60c3
:100a34001a61997083f82110fff76cff012010bd33
:040a4400500000203e
:020000040000fa
:100a480070b50a480a4d4ff6ff76016811b9436838
:100a580003b970bd83684268334000f10c0455f84f
:100a680023302046984704eb8000eee78806000014
:040a7800440b00002b
:020000040000fa
:100a7c00084b01225a711a46d37813f0010ffbd0a0
:100a8c00054b064a1a621a46536813f0040ffbd141
:100a9c00704700bf00080040001c00400701010027
:020000040000fa
:100aac0082b00023019340f6b83303fb00f0019ba6
:100abc00984206d900bf019b01330193019b8342ed
:060acc00f8d302b07047f0
:020000040000fa
:100ad20010b50023934206d113f0030018bf012082
:0e0ae20000eb930010bdc45ccc540133f2e76e
:020000040000fa
:100af00010b5044600f05af818b90cb10123237060
:0c0b000010bd002cfcd002232370f9e78c
:020000040000fa
:100b0c00044b054a5a621a46536813f0080ffbd17e
:0c0b1c00704700bf001c004007010200f1
:020000040000fa
:100b2800044b054a9a621a46536813f0100ffbd11a
:0c0b3800704700bf001c004006013000a8
:020000040000fa
:100b44006d0b0000d30a0000c10b0000c10b0000b4
:040b5400c10b0000d1
:020000040000fa
:100b580008b500f02df8024b1860586008bd00bfba
:040b680098000020d1
:020000040000fa
:100b6c000a440023914201d10020704701f8013b57
:020b7c00f8e798
:020000040000fa
:020b7e00fee790
:020000040000fa
:100b8000024b4cf24202c3f88820704700800041bb
:020000040000fa
:100b900008b5fff7e1ff00f016f800f014f808bd03
:020000040000fa
:0c0ba000014b5862996270475000002021
:020000040000fa
:0c0bac00014b93f821007047500000201e
:020000040000fa
:080bb80000487047ac0000206a
:020000040000fa
:040bc000002070475a
:020000040000fa
:020bc400704778
:020000040000fa
:020bc600704776
:00000001FF
