:020000040000fa
:10000000f8ff0320590f0000a3110000a311000006
:10001000a3110000a3110000a311000000000000c4
:10002000000000000000000000000000a31100001c
:10003000a311000000000000a3110000a3110000a4
:10004000a3110000a3110000a3110000a3110000e0
:10005000a3110000a3110000a3110000a3110000d0
:10006000a3110000a3110000a3110000a3110000c0
:10007000a3110000a3110000a3110000a3110000b0
:10008000a3110000a3110000a3110000a3110000a0
:10009000a3110000a3110000a3110000a311000090
:1000a000a3110000a3110000a3110000a311000080
:1000b000a3110000a3110000a3110000a311000070
:1000c000a3110000a3110000a3110000a311000060
:1000d000a3110000a3110000a3110000a311000050
:1000e000a3110000a31100000000000000000000a8
:1000f00000000000a3110000a3110000a3110000e4
:10010000a3110000a3110000a3110000a31100001f
:10011000a3110000a3110000a3110000a31100000f
:10012000a3110000a3110000a3110000a3110000ff
:10013000a3110000a3110000a3110000a3110000ef
:10014000a3110000a3110000a3110000a3110000df
:10015000a3110000a3110000000000000000000037
:10016000000000000000000000000000000000008f
:100170000000000000000000a3110000a311000017
:10018000a3110000a3110000a3110000a31100009f
:1001900000000000a3110000a3110000a311000043
:1001a000a3110000a3110000a3110000a31100007f
:1001b000a3110000a3110000a3110000a31100006f
:1001c000a3110000a3110000a3110000a31100005f
:1001d000a3110000a3110000a3110000a31100004f
:1001e000a3110000a3110000a3110000a31100003f
:1001f000a3110000a3110000a3110000a31100002f
:10020000a31100000000000000000000a311000086
:10021000a3110000a3110000a3110000a31100000e
:10022000a3110000a3110000a3110000a3110000fe
:10023000a3110000a3110000a3110000a3110000ee
:10024000a3110000a3110000a3110000a3110000de
:10025000a3110000a3110000a3110000a3110000ce
:020000040000fa
:10026000f8b500bff8bc08bc9e467047d910000026
:10027000f8b500bff8bc08bc9e467047b51000003a
:020000040000fa
:1002800080b400af044b40f204521a8000bfbd4658
:100290005df8047b704700bf0040004180b586b028
:1002a00000aff860b9607a607b687b61ba68796991
:1002b000f86800f077ff012318461837bd4680bd67
:1002c00080b483b000af0346fb800a4b1b889bb20f
:1002d0001bb223f030031ab2b7f9063013431ab237
:1002e000044b92b21a8000bf0c37bd465df8047b08
:1002f000704700bf0040004180b586b000af786015
:1003000039600023bb753b683b61194b1b889bb26e
:1003100003f03003fb81174b00221a803b6803f087
:100320000f03002b02d00023bb751be02020fff73a
:10033000c7ff0023fb750ce0fb7d9b007a6813442c
:100340001a683b691a603b6904333b61fb7d0133ea
:10035000fb75fb7d032befd9fb891846fff7b0ff38
:100360000123bb75bb7d18461837bd4680bd00bf55
:10037000004000417400002080b586b000af786076
:1003800039600023bb753b683b61194b1b889bb2ee
:1003900003f03003fb81174b00221a803b6803f007
:1003a0000703002b02d00023bb751be01020fff7d2
:1003b00087ff0023fb750ce0fb7d9b007a681344ec
:1003c0001a683b691a603b6904333b61fb7d01336a
:1003d000fb75fb7d012befd9fb891846fff770fffa
:1003e0000123bb75bb7d18461837bd4680bd00bfd5
:1003f000004000417400002080b485b000af7860f8
:1004000039603b68bb600e4b00221a800023fb6002
:100410000ce0fb689b007a6813441a68bb681a609a
:10042000bb680433bb60fb680133fb60fb687f2b58
:10043000efd9012318461437bd465df8047b704799
:100440007400002080b483b000af78600b4b0022b2
:100450001a800b4a7b685361094b1b889bb203f0df
:100460003003002b03d1064b4af203529a8001233a
:1004700018460c37bd465df8047b704774000020b9
:100480000040004180b485b000af786039603b68bf
:10049000bb60144b00221a800023fb600ce0fb6859
:1004a0009b007a6813441a68bb681a60bb680433ff
:1004b000bb60fb680133fb60fb687f2befd90a4b05
:1004c0001b889bb203f03003002b03d1064b4af28a
:1004d00003529a80012318461437bd465df8047b09
:1004e000704700bf740000200040004180b483b01a
:1004f00000af7860084b00221a80084a7b6853617d
:10050000064b4af201529a80012318460c37bd4629
:100510005df8047b704700bf74000020004000417c
:1005200080b588b000af786039603b687b617b68dc
:100530003b610023fb733b681e4a934234d93b68fe
:100540001d4a934230d81d4b00221a800023bb6104
:1005500025e00023fb610ce03b691a687b691a60a7
:100560007b6904337b613b6904333b61fb69013385
:10057000fb61fb69032befd9bb691a0110493b688a
:1005800013444b610e4b4af204529a8000bf00f0b4
:1005900073f80346002bfad1bb690133bb61bb6919
:1005a0001f2bd6d90123fb73fb7b18462037bd4692
:1005b00080bd00bfff3f800000408000740000202d
:1005c0000040004180b485b000af78600023fb7329
:1005d0007b680d4a93420fd97b680c4a93420bd833
:1005e0000b4b00221a800b4a7b685361094b4ff476
:1005f00025429a800123fb73fb7b18461437bd46c6
:100600005df8047b704700bfff3f80000042800020
:10061000740000200040004180b483b000af0c4b58
:100620001b8afb800b4b1b889ab2fb8813439ab240
:10063000084b1a80064b074a128892b21a82054b61
:100640001b889bb218460c37bd465df8047b70478b
:10065000004000417400002080b483b000af054b1f
:100660005b8afb80fb8818460c37bd465df8047b2f
:10067000704700bf0040004180b400af074b5b8a69
:100680009bb203f00103002b0cbf01230023dbb25c
:100690001846bd465df8047b704700bf004000412e
:1006a00080b483b000af7860064a7b685361054b25
:1006b0004af211529a8000bf0c37bd465df8047ba8
:1006c000704700bf0040004180b483b000af786045
:1006d000064a7b685361054b4af212529a8000bf6a
:1006e0000c37bd465df8047b704700bf00400041f9
:1006f00080b400af034b9b691846bd465df8047b90
:10070000704700bf0040004180b400af044b4af284
:1007100016529a8000bfbd465df8047b704700bf4b
:100720000040004180b400af064bdb6a03f00403d5
:10073000002b14bf01230023dbb21846bd465df831
:10074000047b70470040004180b483b000af054b8c
:10075000db6a7b607b6818460c37bd465df8047b1e
:10076000704700bf0040004180b400af074b1b8ab8
:100770009bb203f48073002b14bf01230023dbb270
:100780001846bd465df8047b704700bf004000413d
:1007900080b400af044b4af217529a8000bfbd46a6
:1007a0005df8047b704700bf0040004180b400af9b
:1007b000044b4af232529a8000bfbd465df8047b7a
:1007c000704700bf0040004180b400af054b0022dd
:1007d0001a80054b4af233529a8000bfbd465df83d
:0c07e000047b70477400002000400041c2
:020000040000fa
:1007ec0080b400af114b4ff00042c3f890200f4b78
:1007fc00062283f8df200d4b002283f8bf200b4b21
:10080c004ff48022c3f80021084b4ff48022c3f828
:10081c001021064b002283f85221044b002283f84e
:10082c00392100bfbd465df8047b70470080004154
:10083c0080b483b000af78607b681b6a18460c37b5
:10084c00bd465df8047b704780b485b000aff8609e
:10085c00b9607a60fb681a69bb68db4302ea030182
:10086c00ba687b681a40fb680a431a6100bf1437e8
:10087c00bd465df8047b704780b483b000af7860f0
:10088c007b681b6918460c37bd465df8047b7047c6
:10089c0080b483b000af786039607b683a689a6145
:1008ac0000bf0c37bd465df8047b704780b483b045
:1008bc0000af786039607b683a685a6100bf0c37ca
:1008cc00bd465df8047b704780b483b000af7860a0
:1008dc0039607b683a68da6100bf0c37bd465df859
:1008ec00047b704780b485b000af786039607b685a
:1008fc003a685a600023fb6019e03a68fb6822faf8
:10090c0003f303f00103002b0ed07a68fb68134449
:10091c0040331b78dbb27a6843f00203d9b2fb6830
:10092c00134440330a461a70fb680133fb60fb68c2
:10093c001f2be2d900bf1437bd465df8047b70470e
:10094c0080b483b000af786039607b683a689a6095
:10095c0000bf0c37bd465df8047b704780b487b090
:10096c0000af03460a46fb8013467b717b793b61e3
:10097c00fb885b099bb203f5020303f58073db0173
:10098c00fb60fb8803f01f03bb60fa68bb685b0865
:10099c00134493f83030dbb27b61bb6803f0010386
:1009ac00002b07d07b6923f0f0023b691b0113433a
:1009bc007b6105e07b6923f00f033a6913437b618c
:1009cc00fa68bb685b087969c9b213440a4683f8b4
:1009dc003020fa68bb68134440331b78dbb2fa68ea
:1009ec0043f00103d9b2bb68134440330a461a7072
:1009fc0000bf1c37bd465df8047b704780b485b0e2
:100a0c0000af0346fb80fb885b099bb203f5020336
:100a1c0003f58073db01fb60fb8803f01f03bb60f5
:100a2c00fa68bb68134440331b78dbb2fa6823f0d6
:100a3c000103d9b2bb68134440330a461a7000bf95
:0c0a4c001437bd465df8047b704700bf06
:020000040000fa
:100a580080b485b000af78607b6803f00703fb6063
:100a68000c4bdb68bb60ba684ff6ff031340bb60f2
:100a7800fb681a02bb68134343f0bf6343f40033b7
:100a8800bb60044abb68d36000bf1437bd465df83d
:100a9800047b704700ed00e080b483b000af0346ec
:100aa800fb80b7f90630002b0bdbfb8803f01f0235
:100ab8000749b7f906305b09012000fa02f241f84c
:100ac800232000bf0c37bd465df8047b704700bf8c
:100ad80000e100e080b483b000af0346fb80b7f9c3
:100ae8000630002b0ddb0a4ab7f906305b0952f8cd
:100af8002320fb8803f01f0322fa03f303f001030a
:100b080000e0002318460c37bd465df8047b7047ab
:100b180000e100e080b483b000af0346fb80b7f982
:100b28000630002b10dbfb8803f01f020949b7f9d8
:100b380006305b09012000fa02f2203341f8232035
:100b4800bff34f8fbff36f8f00bf0c37bd465df803
:100b5800047b704700e100e080b500af0020fff79c
:100b680077ffbff35f8f62b60c4b5b6a0b4a43f4a7
:100b780080235362094b5b69084a43f010035361b1
:100b8800064b5b6a054a43f400335362034b5b6ac6
:100b9800024a43f48033536200bf80bd00ed00e099
:100ba80080b400afbff35f8f62b600bfbd465df88b
:100bb800047b704780b483b000afeff310833b60d1
:100bc8003b68002b0cbf01230023fb7172b6bff3f7
:100bd8005f8ffb7918460c37bd465df8047b70477c
:100be80080b483b000af0346fb71fb79002b03d0c0
:100bf800bff35f8f62b602e072b6bff35f8f00bfcc
:100c08000c37bd465df8047b704780b584b000aff3
:100c18000346fb80fff7ceff0346fb73b7f90630a8
:100c28001846fff757ff0346002b14bf0123002384
:100c3800bb73b7f906301846fff76cfffb7b184605
:100c4800fff7ceffbb7b18461037bd4680bd80b589
:100c580082b000af03460a46fb8013467b717b795e
:100c6800002b05d0b7f906301846fff715ff00bf6f
:080c780000bf0837bd4680bd36
:020000040000fa
:100c800080b400af00bfbd465df8047b704780b400
:100c900000af044b00221a7400bfbd465df8047b10
:100ca000704700bf0014004080b400af174b4222d1
:100cb000c3f8842000bf154bd3f8843003f0400301
:100cc000402bf8d1124b00229a63114b77225a63c2
:100cd00000bf0f4bdb6b03f00403042bf9d00c4b6c
:100ce000022283f8302000bf094bdb6b03f00203c4
:100cf000022bf9d000bf064b1b6c03f00303032b40
:100d0000f9d100bfbd465df8047b7047001c004070
:100d10000010004080b400af00bfbd465df8047b0a
:100d2000704780b400af0d4b01225a7100bf0b4bce
:100d3000db78dbb203f00103012bf8d1084b094a41
:100d40001a6200bf064b5b6803f00403042bf9d062
:100d500000bfbd465df8047b704700bf000800403f
:100d6000001c00400701010080b400af074b084a97
:100d70005a6200bf054b5b6803f00803082bf9d0eb
:100d800000bfbd465df8047b704700bf001c0040fb
:100d90000701020080b400af074b084a9a6200bf07
:100da000054b5b6803f01003102bf9d000bfbd4664
:100db0005df8047b704700bf001c00400601300056
:100dc00080b500affff75cfffff761fffff7a2ff01
:100dd000fff7e0fffff768fffff7a3fffff7c4ff90
:100de000044b6ff07f421a61024b40f2ff725a616e
:080df00000bf80bd00080040b7
:020000040000fa
:100df80080b400af084b9b68074a23f00103936057
:100e080000bf054bdb6803f00103012bf9d000bfdd
:100e1800bd465df8047b70470060004180b400afb8
:100e28000d4b9b680c4a23f00103936000bf0a4beb
:100e3800db6803f00103012bf9d0074b5b68064a16
:100e480023f002035360044b01229a6000bfbd46a1
:100e58005df8047b704700bf0060004180b400afbc
:100e68000d4b9b680c4a23f00103936000bf0a4bab
:100e7800db6803f00103012bf9d0074b5b68064ad6
:100e880043f002035360044b01229a6000bfbd4641
:100e98005df8047b704700bf0060004180b400af7c
:100ea8000d4b9b680c4a23f00103936000bf0a4b6b
:100eb800db6803f00103012bf9d0074b5b68064a96
:100ec80023f004035360044b01229a6000bfbd461f
:100ed8005df8047b704700bf0060004180b400af3c
:100ee8000d4b9b680c4a23f00103936000bf0a4b2b
:100ef800db6803f00103012bf9d0074b5b68064a56
:100f080043f004035360044b01229a6000bfbd46be
:100f18005df8047b704700bf0060004180b400affb
:100f28000a4b9b68094a23f00103936000bf074bf3
:100f3800db6803f00103012bf9d0044b01221a628c
:100f480000bfbd465df8047b704700bf00600041ec
:020000040000fa
:100f58001a4b03b198471a4b03b19847eff3108324
:100f6800b3fa83f35b09019372b6bff35f8f154b36
:100f780000221a700199144a136843f4700313602d
:100f8800bff34f8fbff36f8f29b10e4b01221a7039
:100f9800bff35f8f62b600f0c5f80c4b23f07f03f8
:100fa8000b4a93600b4b98470b4b03b198470b4b7d
:100fb80003b1984700f09af8fee700bf0000000070
:100fc800000000007600002088ed00e0000000002e
:100fd80000ed00e0591000000000000000000000d3
:020000040000fa
:100fe800780000200400000001000000000000005c
:100ff800500000201c0000000000000074000020c9
:1010080003000000000000006c0000200400000045
:101018000000000000000020500000000000000058
:101028007000002004000000000000007c00002088
:1010380004000000010000000000000000000000a3
:1010480000000000666666666666666666666666d0
:020000040000fa
:101058000e4a38b5002313600d4a0e4c13600e4a31
:101068000e4d13600e4a13600e4a13600e4a536207
:1010780013610123936000f0bbf800f0b9f8ac42ab
:1010880000d338bd54f8043b9847f8e770000020b7
:101098000c0000206c020000080000207002000014
:0c10a800000000200400002010000020c8
:020000040000fa
:1010b40010b5054c227832b9044b13b10448aff390
:1010c40000800123237010bd5000002000000000a8
:1010d4000000000008b5034b1bb103490348aff3fc
:1010e400008008bd00000000540000200000000043
:020000040000fa
:1010f40080b483b000af0a4b4ff400329a60084bbf
:101104004ff40032da6100237b6003e000bf7b68a8
:1011140001337b607b68034a9342f7d9efe700bf52
:0811240000800041bfc62d0050
:020000040000fa
:10112c0070b50a480a4d4ff6ff76016811b943684d
:10113c0003b970bd83684268334000f10c0455f864
:10114c0023302046984704eb8000eee7e80f0000c0
:04115c00c0110000be
:020000040000fa
:1011600080b582b000af7860fff78af8fff73efbea
:10117000fff726fe00f037f8fff7f2fc00bf083754
:04118000bd4680bd2b
:020000040000fa
:1011840010b50023934206d113f0030018bf0120c9
:0e11940000eb930010bdc45ccc540133f2e7b5
:020000040000fa
:0211a200fee766
:020000040000fa
:1011a4005ab110b40a44431e11f8014b03f8014f1d
:0c11b4009142f9d15df8044b7047704780
:020000040000fa
:1011c000d511000085110000f5110000f511000097
:0411d000f511000015
:020000040000fa
:1011d4000a440023914201d10020704701f8013be9
:0211e400f8e72a
:020000040000fa
:0e11e60080b400af00bfbd465df8047b7047cb
:020000040000fa
:0411f4000020704720
:020000040000fa
:0211f80070473e
:020000040000fa
:0200000400807a
:044000003912003c35
:020000040000fa
:0200000400807a
:044004008000a82a66
:020000040000fa
:0200000400807a
:04400800ffffffffb8
:00000001FF
